:100000000C9472000C9400000C9400000C940000FE
:100010000C9400000C9400000C9400000C94000060
:100020000C9400000C9400000C9400000C94000050
:100030000C9400000C9400000C9400000C94000040
:100040000C9400000C9400000C9400000C94000030
:100050000C9400000C9400000C9400000C94000020
:100060000C9400000C9400000C9400000C94000010
:100070000C9400000C9400000C9400000C94000000
:100080000C9400000C9400000C9400000C940000F0
:100090000C9400000C9400000C9400000C940000E0
:1000A0000C9400000C9400000C9400000C940000D0
:1000B0000C9400000C9400000C9400000C940000C0
:1000C0000C9400000C9400000C9400000C940000B0
:1000D0000C9400000C9400000C9400000C940000A0
:1000E0000C940000F894EE27EFBBF1E0F5BFE5BFFC
:1000F000E0937400E0937500F8E1A895A4B7A77F9A
:10010000A4BFF0936000E09360008DE0A2E0BB2705
:10011000ED938A95E9F780E090E2A0E0B2E0ED93FC
:100120000197E9F78BBF8CBFE0E0EEBBEFEFEDBFCF
:10013000E1E2EEBFC0E0DAE00C949E00E0E8E0937C
:100140006100E0E0E0936100E2B9E1B9E5B9E0E81F
:10015000E4B9E0E0E8B9E7B9EBB9EAB9EEB9EDB96D
:10016000E1BBE0BBE4BBE3BBE0930201E093010130
:10017000E0930501E0930401E0930801E093070197
:10018000E0930B01E0930A01E4BDE5BDE6BDE7BDE8
:10019000E8BDE0938000E0938100E0938500E09368
:1001A0008400E0938700E0938600E0938900E09369
:1001B0008800E0938B00E0938A00E0938D00E09349
:1001C0008C00E093B600E093B000E093B100E093C0
:1001D000B200E093B300E093B400E0939000E093AA
:1001E0009100E0939500E0939400E0939700E093F2
:1001F0009600E0939900E0939800E0939B00E093D1
:100200009A00E0939D00E0939C00E093A000E093AF
:10021000A100E093A500E093A400E093A700E09381
:10022000A600E093A900E093A800E093AB00E09360
:10023000AA00E093AD00E093AC00E0932001E093CE
:100240002101E0932501E0932401E0932701E0934D
:100250002601E0932901E0932801E0932B01E0932C
:100260002A01E0932D01E0932C01E0936900E093D3
:100270006A00EDBBE0936B00E0936C00E0936D00CF
:10028000E0936800E0936E00E0936F00E0937000ED
:10029000E0937100E0937200E0937300E093C1007B
:1002A000E093C900E093D100E0933101E0E8E0BFC2
:1002B000E0E0E0937B00E0937F00E0937A00ECBD08
:1002C000E093BC002F98A0EDB7E00E946E012F9A3A
:1002D000A0EDB7E00E946E01F5CFFFCF109639F088
:1002E00080EA9FE00197F1F7A8951197C9F7089563
:00000001FF
